{
  "contractName": "ProfessorReview",
  "abi": [
    {
      "anonymous": false,
      "inputs": [
        {
          "indexed": true,
          "internalType": "uint256",
          "name": "id",
          "type": "uint256"
        },
        {
          "indexed": false,
          "internalType": "string",
          "name": "studentName",
          "type": "string"
        },
        {
          "indexed": false,
          "internalType": "string",
          "name": "courseName",
          "type": "string"
        },
        {
          "indexed": false,
          "internalType": "uint8",
          "name": "rating1",
          "type": "uint8"
        },
        {
          "indexed": false,
          "internalType": "uint8",
          "name": "rating2",
          "type": "uint8"
        },
        {
          "indexed": false,
          "internalType": "string",
          "name": "feedback",
          "type": "string"
        }
      ],
      "name": "ReviewAdded",
      "type": "event"
    },
    {
      "inputs": [
        {
          "internalType": "uint256",
          "name": "",
          "type": "uint256"
        }
      ],
      "name": "reviews",
      "outputs": [
        {
          "internalType": "uint256",
          "name": "id",
          "type": "uint256"
        },
        {
          "internalType": "string",
          "name": "studentName",
          "type": "string"
        },
        {
          "internalType": "string",
          "name": "courseName",
          "type": "string"
        },
        {
          "internalType": "uint8",
          "name": "rating1",
          "type": "uint8"
        },
        {
          "internalType": "uint8",
          "name": "rating2",
          "type": "uint8"
        },
        {
          "internalType": "string",
          "name": "feedback",
          "type": "string"
        }
      ],
      "stateMutability": "view",
      "type": "function",
      "constant": true
    },
    {
      "inputs": [
        {
          "internalType": "string",
          "name": "_studentName",
          "type": "string"
        },
        {
          "internalType": "string",
          "name": "_courseName",
          "type": "string"
        },
        {
          "internalType": "uint8",
          "name": "_rating1",
          "type": "uint8"
        },
        {
          "internalType": "uint8",
          "name": "_rating2",
          "type": "uint8"
        },
        {
          "internalType": "string",
          "name": "_feedback",
          "type": "string"
        }
      ],
      "name": "addReview",
      "outputs": [],
      "stateMutability": "nonpayable",
      "type": "function"
    },
    {
      "inputs": [
        {
          "internalType": "uint256",
          "name": "index",
          "type": "uint256"
        }
      ],
      "name": "getReview",
      "outputs": [
        {
          "internalType": "string",
          "name": "",
          "type": "string"
        },
        {
          "internalType": "string",
          "name": "",
          "type": "string"
        },
        {
          "internalType": "uint8",
          "name": "",
          "type": "uint8"
        },
        {
          "internalType": "uint8",
          "name": "",
          "type": "uint8"
        },
        {
          "internalType": "string",
          "name": "",
          "type": "string"
        }
      ],
      "stateMutability": "view",
      "type": "function",
      "constant": true
    }
  ],
  "bytecode": "0x608060405234801561001057600080fd5b50610da0806100206000396000f3fe608060405234801561001057600080fd5b50600436106100415760003560e01c80634c72761214610046578063990581b614610062578063e83ddcea14610096575b600080fd5b610060600480360381019061005b91906107b0565b6100cb565b005b61007c600480360381019061007791906108b5565b61020a565b60405161008d959493929190610970565b60405180910390f35b6100b060048036038101906100ab91906108b5565b61041f565b6040516100c2969594939291906109e7565b60405180910390f35b60008080549050905060006040518060c001604052808381526020018881526020018781526020018660ff1681526020018560ff1681526020018481525090806001815401808255809150506001900390600052602060002090600502016000909190919091506000820151816000015560208201518160010190816101519190610c69565b5060408201518160020190816101679190610c69565b5060608201518160030160006101000a81548160ff021916908360ff16021790555060808201518160030160016101000a81548160ff021916908360ff16021790555060a08201518160040190816101bf9190610c69565b505050807f5bf8b94627f5ee0f5a9b19c31d58416b987e4bf19c76f98b4b36adef2bdc884287878787876040516101fa959493929190610970565b60405180910390a2505050505050565b6060806000806060600080878154811061022757610226610d3b565b5b9060005260206000209060050201905080600101816002018260030160009054906101000a900460ff168360030160019054906101000a900460ff168460040184805461027390610a8c565b80601f016020809104026020016040519081016040528092919081815260200182805461029f90610a8c565b80156102ec5780601f106102c1576101008083540402835291602001916102ec565b820191906000526020600020905b8154815290600101906020018083116102cf57829003601f168201915b505050505094508380546102ff90610a8c565b80601f016020809104026020016040519081016040528092919081815260200182805461032b90610a8c565b80156103785780601f1061034d57610100808354040283529160200191610378565b820191906000526020600020905b81548152906001019060200180831161035b57829003601f168201915b5050505050935080805461038b90610a8c565b80601f01602080910402602001604051908101604052809291908181526020018280546103b790610a8c565b80156104045780601f106103d957610100808354040283529160200191610404565b820191906000526020600020905b8154815290600101906020018083116103e757829003601f168201915b50505050509050955095509550955095505091939590929450565b6000818154811061042f57600080fd5b906000526020600020906005020160009150905080600001549080600101805461045890610a8c565b80601f016020809104026020016040519081016040528092919081815260200182805461048490610a8c565b80156104d15780601f106104a6576101008083540402835291602001916104d1565b820191906000526020600020905b8154815290600101906020018083116104b457829003601f168201915b5050505050908060020180546104e690610a8c565b80601f016020809104026020016040519081016040528092919081815260200182805461051290610a8c565b801561055f5780601f106105345761010080835404028352916020019161055f565b820191906000526020600020905b81548152906001019060200180831161054257829003601f168201915b5050505050908060030160009054906101000a900460ff16908060030160019054906101000a900460ff169080600401805461059a90610a8c565b80601f01602080910402602001604051908101604052809291908181526020018280546105c690610a8c565b80156106135780601f106105e857610100808354040283529160200191610613565b820191906000526020600020905b8154815290600101906020018083116105f657829003601f168201915b5050505050905086565b6000604051905090565b600080fd5b600080fd5b600080fd5b600080fd5b6000601f19601f8301169050919050565b7f4e487b7100000000000000000000000000000000000000000000000000000000600052604160045260246000fd5b6106848261063b565b810181811067ffffffffffffffff821117156106a3576106a261064c565b5b80604052505050565b60006106b661061d565b90506106c2828261067b565b919050565b600067ffffffffffffffff8211156106e2576106e161064c565b5b6106eb8261063b565b9050602081019050919050565b82818337600083830152505050565b600061071a610715846106c7565b6106ac565b90508281526020810184848401111561073657610735610636565b5b6107418482856106f8565b509392505050565b600082601f83011261075e5761075d610631565b5b813561076e848260208601610707565b91505092915050565b600060ff82169050919050565b61078d81610777565b811461079857600080fd5b50565b6000813590506107aa81610784565b92915050565b600080600080600060a086880312156107cc576107cb610627565b5b600086013567ffffffffffffffff8111156107ea576107e961062c565b5b6107f688828901610749565b955050602086013567ffffffffffffffff8111156108175761081661062c565b5b61082388828901610749565b94505060406108348882890161079b565b93505060606108458882890161079b565b925050608086013567ffffffffffffffff8111156108665761086561062c565b5b61087288828901610749565b9150509295509295909350565b6000819050919050565b6108928161087f565b811461089d57600080fd5b50565b6000813590506108af81610889565b92915050565b6000602082840312156108cb576108ca610627565b5b60006108d9848285016108a0565b91505092915050565b600081519050919050565b600082825260208201905092915050565b60005b8381101561091c578082015181840152602081019050610901565b60008484015250505050565b6000610933826108e2565b61093d81856108ed565b935061094d8185602086016108fe565b6109568161063b565b840191505092915050565b61096a81610777565b82525050565b600060a082019050818103600083015261098a8188610928565b9050818103602083015261099e8187610928565b90506109ad6040830186610961565b6109ba6060830185610961565b81810360808301526109cc8184610928565b90509695505050505050565b6109e18161087f565b82525050565b600060c0820190506109fc60008301896109d8565b8181036020830152610a0e8188610928565b90508181036040830152610a228187610928565b9050610a316060830186610961565b610a3e6080830185610961565b81810360a0830152610a508184610928565b9050979650505050505050565b7f4e487b7100000000000000000000000000000000000000000000000000000000600052602260045260246000fd5b60006002820490506001821680610aa457607f821691505b602082108103610ab757610ab6610a5d565b5b50919050565b60008190508160005260206000209050919050565b60006020601f8301049050919050565b600082821b905092915050565b600060088302610b1f7fffffffffffffffffffffffffffffffffffffffffffffffffffffffffffffffff82610ae2565b610b298683610ae2565b95508019841693508086168417925050509392505050565b6000819050919050565b6000610b66610b61610b5c8461087f565b610b41565b61087f565b9050919050565b6000819050919050565b610b8083610b4b565b610b94610b8c82610b6d565b848454610aef565b825550505050565b600090565b610ba9610b9c565b610bb4818484610b77565b505050565b5b81811015610bd857610bcd600082610ba1565b600181019050610bba565b5050565b601f821115610c1d57610bee81610abd565b610bf784610ad2565b81016020851015610c06578190505b610c1a610c1285610ad2565b830182610bb9565b50505b505050565b600082821c905092915050565b6000610c4060001984600802610c22565b1980831691505092915050565b6000610c598383610c2f565b9150826002028217905092915050565b610c72826108e2565b67ffffffffffffffff811115610c8b57610c8a61064c565b5b610c958254610a8c565b610ca0828285610bdc565b600060209050601f831160018114610cd35760008415610cc1578287015190505b610ccb8582610c4d565b865550610d33565b601f198416610ce186610abd565b60005b82811015610d0957848901518255600182019150602085019450602081019050610ce4565b86831015610d265784890151610d22601f891682610c2f565b8355505b6001600288020188555050505b505050505050565b7f4e487b7100000000000000000000000000000000000000000000000000000000600052603260045260246000fdfea264697066735822122007512d2cd720d7bbd18911ba9a79cc3ee13f1f2c047fa7e2aa60509282b021ad64736f6c63430008130033",
  "immutableReferences": {},
  "source": "// SPDX-License-Identifier: MIT\r\npragma solidity ^0.8.0;\r\n\r\ncontract ProfessorReview {\r\n    struct Review {\r\n        uint256 id; // Added id for unique identification\r\n        string studentName;\r\n        string courseName;\r\n        uint8 rating1;\r\n        uint8 rating2;\r\n        string feedback;\r\n    }\r\n\r\n    Review[] public reviews;\r\n\r\n    // Event to be emitted when a new review is added\r\n    event ReviewAdded(\r\n        uint256 indexed id, // Emit id with event\r\n        string studentName,\r\n        string courseName,\r\n        uint8 rating1,\r\n        uint8 rating2,\r\n        string feedback\r\n    );\r\n\r\n    function addReview(\r\n        string memory _studentName,\r\n        string memory _courseName,\r\n        uint8 _rating1,\r\n        uint8 _rating2,\r\n        string memory _feedback\r\n    ) public {\r\n        uint256 reviewId = reviews.length; // Use the current length as the ID\r\n        reviews.push(Review(reviewId, _studentName, _courseName, _rating1, _rating2, _feedback));\r\n\r\n        // Emit the ReviewAdded event\r\n        emit ReviewAdded(reviewId, _studentName, _courseName, _rating1, _rating2, _feedback);\r\n    }\r\n\r\n    function getReview(uint256 index) public view returns (string memory, string memory, uint8, uint8, string memory) {\r\n        Review storage review = reviews[index];\r\n        return (review.studentName, review.courseName, review.rating1, review.rating2, review.feedback);\r\n    }\r\n}\r\n",
  "sourcePath": "C:\\Users\\singh\\professor-review-dapp\\contracts\\ProfessorReview.sol",
  "compiler": {
    "name": "solc",
    "version": "0.8.19+commit.7dd6d404.Emscripten.clang"
  },
  "schemaVersion": "3.4.16",
  "updatedAt": "2024-10-16T13:58:50.687Z",
  "networkType": "ethereum",
  "devdoc": {
    "kind": "dev",
    "methods": {},
    "version": 1
  },
  "userdoc": {
    "kind": "user",
    "methods": {},
    "version": 1
  }
}